{
  "contractName": "SocialNetwork",
  "abi": [
    {
      "inputs": [],
      "stateMutability": "nonpayable",
      "type": "constructor"
    },
    {
      "anonymous": false,
      "inputs": [
        {
          "indexed": false,
          "internalType": "string",
          "name": "tag",
          "type": "string"
        },
        {
          "components": [
            {
              "internalType": "uint256",
              "name": "pid",
              "type": "uint256"
            },
            {
              "internalType": "string",
              "name": "content",
              "type": "string"
            },
            {
              "internalType": "string",
              "name": "url",
              "type": "string"
            },
            {
              "internalType": "uint256",
              "name": "tipAmount",
              "type": "uint256"
            },
            {
              "internalType": "address payable",
              "name": "author",
              "type": "address"
            },
            {
              "internalType": "uint256",
              "name": "authorId",
              "type": "uint256"
            },
            {
              "internalType": "string",
              "name": "authorName",
              "type": "string"
            },
            {
              "internalType": "uint256",
              "name": "commentsCount",
              "type": "uint256"
            },
            {
              "internalType": "bytes32",
              "name": "picIpfsHash",
              "type": "bytes32"
            }
          ],
          "indexed": false,
          "internalType": "struct SocialNetwork.Post[]",
          "name": "posts",
          "type": "tuple[]"
        }
      ],
      "name": "AllPostsOfATag",
      "type": "event"
    },
    {
      "anonymous": false,
      "inputs": [
        {
          "indexed": true,
          "internalType": "address",
          "name": "sender",
          "type": "address"
        },
        {
          "indexed": false,
          "internalType": "string",
          "name": "message",
          "type": "string"
        }
      ],
      "name": "AutoCreateUser",
      "type": "event"
    },
    {
      "anonymous": false,
      "inputs": [
        {
          "indexed": false,
          "internalType": "uint256",
          "name": "pid",
          "type": "uint256"
        },
        {
          "indexed": false,
          "internalType": "uint256",
          "name": "cid",
          "type": "uint256"
        },
        {
          "indexed": false,
          "internalType": "string",
          "name": "comment",
          "type": "string"
        },
        {
          "indexed": false,
          "internalType": "address",
          "name": "commentedUser",
          "type": "address"
        },
        {
          "indexed": false,
          "internalType": "string",
          "name": "authorName",
          "type": "string"
        }
      ],
      "name": "CommentCreated",
      "type": "event"
    },
    {
      "anonymous": false,
      "inputs": [
        {
          "indexed": false,
          "internalType": "uint256",
          "name": "pid",
          "type": "uint256"
        },
        {
          "indexed": false,
          "internalType": "uint256",
          "name": "cid",
          "type": "uint256"
        },
        {
          "indexed": false,
          "internalType": "string",
          "name": "deletedComment",
          "type": "string"
        },
        {
          "indexed": false,
          "internalType": "address",
          "name": "commentAuthor",
          "type": "address"
        },
        {
          "indexed": false,
          "internalType": "string",
          "name": "authorName",
          "type": "string"
        }
      ],
      "name": "CommentDeleted",
      "type": "event"
    },
    {
      "anonymous": false,
      "inputs": [
        {
          "indexed": false,
          "internalType": "address",
          "name": "sender",
          "type": "address"
        },
        {
          "indexed": false,
          "internalType": "address",
          "name": "caller",
          "type": "address"
        },
        {
          "indexed": false,
          "internalType": "uint256",
          "name": "balance",
          "type": "uint256"
        }
      ],
      "name": "DestroyContract",
      "type": "event"
    },
    {
      "anonymous": false,
      "inputs": [
        {
          "indexed": true,
          "internalType": "address",
          "name": "sender",
          "type": "address"
        },
        {
          "indexed": false,
          "internalType": "uint256[]",
          "name": "followingIds",
          "type": "uint256[]"
        },
        {
          "indexed": false,
          "internalType": "uint256[]",
          "name": "followerIds",
          "type": "uint256[]"
        }
      ],
      "name": "FetchMyNetworkIds",
      "type": "event"
    },
    {
      "anonymous": false,
      "inputs": [
        {
          "indexed": true,
          "internalType": "address",
          "name": "addr",
          "type": "address"
        },
        {
          "indexed": false,
          "internalType": "uint256[]",
          "name": "myPostIds",
          "type": "uint256[]"
        }
      ],
      "name": "FetchMyPosts",
      "type": "event"
    },
    {
      "anonymous": false,
      "inputs": [
        {
          "indexed": true,
          "internalType": "address",
          "name": "sender",
          "type": "address"
        },
        {
          "indexed": false,
          "internalType": "uint256",
          "name": "senderId",
          "type": "uint256"
        },
        {
          "indexed": false,
          "internalType": "uint256",
          "name": "author",
          "type": "uint256"
        },
        {
          "indexed": false,
          "internalType": "string",
          "name": "message",
          "type": "string"
        },
        {
          "indexed": false,
          "internalType": "uint256",
          "name": "count",
          "type": "uint256"
        }
      ],
      "name": "FollowOrUnFollowUser",
      "type": "event"
    },
    {
      "anonymous": false,
      "inputs": [
        {
          "indexed": true,
          "internalType": "address",
          "name": "id",
          "type": "address"
        },
        {
          "indexed": false,
          "internalType": "uint256",
          "name": "pid",
          "type": "uint256"
        },
        {
          "indexed": false,
          "internalType": "string",
          "name": "content",
          "type": "string"
        },
        {
          "indexed": false,
          "internalType": "string",
          "name": "url",
          "type": "string"
        },
        {
          "indexed": false,
          "internalType": "uint256",
          "name": "tipAmount",
          "type": "uint256"
        },
        {
          "indexed": false,
          "internalType": "address",
          "name": "author",
          "type": "address"
        },
        {
          "indexed": false,
          "internalType": "uint256",
          "name": "authorId",
          "type": "uint256"
        },
        {
          "indexed": false,
          "internalType": "string",
          "name": "authorName",
          "type": "string"
        },
        {
          "indexed": false,
          "internalType": "bytes32",
          "name": "imageHash",
          "type": "bytes32"
        }
      ],
      "name": "PostCreated",
      "type": "event"
    },
    {
      "anonymous": false,
      "inputs": [
        {
          "indexed": false,
          "internalType": "string[]",
          "name": "tags",
          "type": "string[]"
        },
        {
          "indexed": false,
          "internalType": "uint256",
          "name": "postId",
          "type": "uint256"
        }
      ],
      "name": "PostTagsCreated",
      "type": "event"
    },
    {
      "anonymous": false,
      "inputs": [
        {
          "indexed": false,
          "internalType": "uint256",
          "name": "pid",
          "type": "uint256"
        },
        {
          "indexed": false,
          "internalType": "uint256",
          "name": "tipAmount",
          "type": "uint256"
        },
        {
          "indexed": false,
          "internalType": "address",
          "name": "author",
          "type": "address"
        }
      ],
      "name": "PostTipped",
      "type": "event"
    },
    {
      "anonymous": false,
      "inputs": [
        {
          "indexed": false,
          "internalType": "string",
          "name": "tag",
          "type": "string"
        }
      ],
      "name": "emitWord",
      "type": "event"
    },
    {
      "inputs": [],
      "name": "networkName",
      "outputs": [
        {
          "internalType": "string",
          "name": "",
          "type": "string"
        }
      ],
      "stateMutability": "view",
      "type": "function",
      "constant": true
    },
    {
      "inputs": [],
      "name": "postCount",
      "outputs": [
        {
          "internalType": "uint256",
          "name": "",
          "type": "uint256"
        }
      ],
      "stateMutability": "view",
      "type": "function",
      "constant": true
    },
    {
      "inputs": [],
      "name": "userCount",
      "outputs": [
        {
          "internalType": "uint16",
          "name": "",
          "type": "uint16"
        }
      ],
      "stateMutability": "view",
      "type": "function",
      "constant": true
    },
    {
      "inputs": [
        {
          "internalType": "address",
          "name": "_userAddress",
          "type": "address"
        }
      ],
      "name": "getUserIdFromAddress",
      "outputs": [
        {
          "internalType": "uint256",
          "name": "",
          "type": "uint256"
        }
      ],
      "stateMutability": "view",
      "type": "function",
      "constant": true
    },
    {
      "inputs": [
        {
          "internalType": "uint256",
          "name": "_postId",
          "type": "uint256"
        }
      ],
      "name": "getPostFromPostId",
      "outputs": [
        {
          "components": [
            {
              "internalType": "uint256",
              "name": "pid",
              "type": "uint256"
            },
            {
              "internalType": "string",
              "name": "content",
              "type": "string"
            },
            {
              "internalType": "string",
              "name": "url",
              "type": "string"
            },
            {
              "internalType": "uint256",
              "name": "tipAmount",
              "type": "uint256"
            },
            {
              "internalType": "address payable",
              "name": "author",
              "type": "address"
            },
            {
              "internalType": "uint256",
              "name": "authorId",
              "type": "uint256"
            },
            {
              "internalType": "string",
              "name": "authorName",
              "type": "string"
            },
            {
              "internalType": "uint256",
              "name": "commentsCount",
              "type": "uint256"
            },
            {
              "internalType": "bytes32",
              "name": "picIpfsHash",
              "type": "bytes32"
            }
          ],
          "internalType": "struct SocialNetwork.Post",
          "name": "",
          "type": "tuple"
        }
      ],
      "stateMutability": "view",
      "type": "function",
      "constant": true
    },
    {
      "inputs": [
        {
          "internalType": "string",
          "name": "_uname",
          "type": "string"
        }
      ],
      "name": "autoCreateUser",
      "outputs": [],
      "stateMutability": "nonpayable",
      "type": "function"
    },
    {
      "inputs": [],
      "name": "getUserInfo",
      "outputs": [
        {
          "internalType": "uint256",
          "name": "",
          "type": "uint256"
        },
        {
          "internalType": "string",
          "name": "",
          "type": "string"
        },
        {
          "internalType": "uint256",
          "name": "",
          "type": "uint256"
        },
        {
          "internalType": "uint256",
          "name": "",
          "type": "uint256"
        },
        {
          "internalType": "uint256",
          "name": "",
          "type": "uint256"
        },
        {
          "internalType": "uint256",
          "name": "",
          "type": "uint256"
        }
      ],
      "stateMutability": "view",
      "type": "function",
      "constant": true
    },
    {
      "inputs": [
        {
          "internalType": "uint256",
          "name": "_authorId",
          "type": "uint256"
        }
      ],
      "name": "followAuthor",
      "outputs": [],
      "stateMutability": "nonpayable",
      "type": "function"
    },
    {
      "inputs": [
        {
          "internalType": "uint256",
          "name": "_authorId",
          "type": "uint256"
        }
      ],
      "name": "unFollowAuthor",
      "outputs": [],
      "stateMutability": "nonpayable",
      "type": "function"
    },
    {
      "inputs": [
        {
          "internalType": "uint256",
          "name": "_id",
          "type": "uint256"
        }
      ],
      "name": "getMyPosts",
      "outputs": [
        {
          "internalType": "uint256[]",
          "name": "",
          "type": "uint256[]"
        },
        {
          "components": [
            {
              "internalType": "uint256",
              "name": "pid",
              "type": "uint256"
            },
            {
              "internalType": "string",
              "name": "content",
              "type": "string"
            },
            {
              "internalType": "string",
              "name": "url",
              "type": "string"
            },
            {
              "internalType": "uint256",
              "name": "tipAmount",
              "type": "uint256"
            },
            {
              "internalType": "address payable",
              "name": "author",
              "type": "address"
            },
            {
              "internalType": "uint256",
              "name": "authorId",
              "type": "uint256"
            },
            {
              "internalType": "string",
              "name": "authorName",
              "type": "string"
            },
            {
              "internalType": "uint256",
              "name": "commentsCount",
              "type": "uint256"
            },
            {
              "internalType": "bytes32",
              "name": "picIpfsHash",
              "type": "bytes32"
            }
          ],
          "internalType": "struct SocialNetwork.Post[]",
          "name": "",
          "type": "tuple[]"
        }
      ],
      "stateMutability": "nonpayable",
      "type": "function"
    },
    {
      "inputs": [],
      "name": "getAllFollowingIds",
      "outputs": [
        {
          "internalType": "uint256[]",
          "name": "",
          "type": "uint256[]"
        },
        {
          "internalType": "uint256[]",
          "name": "",
          "type": "uint256[]"
        }
      ],
      "stateMutability": "nonpayable",
      "type": "function"
    },
    {
      "inputs": [
        {
          "internalType": "uint256",
          "name": "myId",
          "type": "uint256"
        }
      ],
      "name": "getWholeNetworkForAnId",
      "outputs": [
        {
          "internalType": "uint256[]",
          "name": "",
          "type": "uint256[]"
        },
        {
          "internalType": "uint256[]",
          "name": "",
          "type": "uint256[]"
        }
      ],
      "stateMutability": "nonpayable",
      "type": "function"
    },
    {
      "inputs": [
        {
          "internalType": "uint256",
          "name": "_uid",
          "type": "uint256"
        }
      ],
      "name": "getUserData",
      "outputs": [
        {
          "internalType": "uint256",
          "name": "",
          "type": "uint256"
        },
        {
          "internalType": "string",
          "name": "",
          "type": "string"
        },
        {
          "internalType": "uint256",
          "name": "",
          "type": "uint256"
        },
        {
          "internalType": "uint256",
          "name": "",
          "type": "uint256"
        },
        {
          "internalType": "uint256",
          "name": "",
          "type": "uint256"
        },
        {
          "internalType": "uint256",
          "name": "",
          "type": "uint256"
        }
      ],
      "stateMutability": "view",
      "type": "function",
      "constant": true
    },
    {
      "inputs": [
        {
          "internalType": "string",
          "name": "_content",
          "type": "string"
        },
        {
          "internalType": "string",
          "name": "_url",
          "type": "string"
        },
        {
          "internalType": "bytes32",
          "name": "_imageHash",
          "type": "bytes32"
        }
      ],
      "name": "createPost",
      "outputs": [],
      "stateMutability": "nonpayable",
      "type": "function"
    },
    {
      "inputs": [
        {
          "internalType": "uint256",
          "name": "_id",
          "type": "uint256"
        }
      ],
      "name": "tipAPost",
      "outputs": [],
      "stateMutability": "payable",
      "type": "function",
      "payable": true
    },
    {
      "inputs": [
        {
          "internalType": "uint256",
          "name": "_pid",
          "type": "uint256"
        },
        {
          "internalType": "string",
          "name": "_comment",
          "type": "string"
        }
      ],
      "name": "createComment",
      "outputs": [],
      "stateMutability": "nonpayable",
      "type": "function"
    },
    {
      "inputs": [
        {
          "internalType": "uint256",
          "name": "_postId",
          "type": "uint256"
        }
      ],
      "name": "fetchAllComments",
      "outputs": [
        {
          "components": [
            {
              "internalType": "uint256",
              "name": "postId",
              "type": "uint256"
            },
            {
              "internalType": "uint256",
              "name": "cid",
              "type": "uint256"
            },
            {
              "internalType": "string",
              "name": "comment",
              "type": "string"
            },
            {
              "internalType": "address",
              "name": "author",
              "type": "address"
            },
            {
              "internalType": "uint256",
              "name": "authorId",
              "type": "uint256"
            },
            {
              "internalType": "string",
              "name": "authorName",
              "type": "string"
            }
          ],
          "internalType": "struct SocialNetwork.Comment[]",
          "name": "",
          "type": "tuple[]"
        }
      ],
      "stateMutability": "view",
      "type": "function",
      "constant": true
    },
    {
      "inputs": [
        {
          "internalType": "string",
          "name": "_content",
          "type": "string"
        },
        {
          "internalType": "uint256",
          "name": "_postId",
          "type": "uint256"
        }
      ],
      "name": "createTag",
      "outputs": [],
      "stateMutability": "nonpayable",
      "type": "function"
    },
    {
      "inputs": [
        {
          "internalType": "bytes1",
          "name": "_char",
          "type": "bytes1"
        }
      ],
      "name": "checkEmptyCharacter",
      "outputs": [
        {
          "internalType": "bool",
          "name": "",
          "type": "bool"
        }
      ],
      "stateMutability": "pure",
      "type": "function",
      "constant": true
    },
    {
      "inputs": [
        {
          "internalType": "string",
          "name": "tag",
          "type": "string"
        }
      ],
      "name": "getPostsFromTag",
      "outputs": [
        {
          "components": [
            {
              "internalType": "uint256",
              "name": "pid",
              "type": "uint256"
            },
            {
              "internalType": "string",
              "name": "content",
              "type": "string"
            },
            {
              "internalType": "string",
              "name": "url",
              "type": "string"
            },
            {
              "internalType": "uint256",
              "name": "tipAmount",
              "type": "uint256"
            },
            {
              "internalType": "address payable",
              "name": "author",
              "type": "address"
            },
            {
              "internalType": "uint256",
              "name": "authorId",
              "type": "uint256"
            },
            {
              "internalType": "string",
              "name": "authorName",
              "type": "string"
            },
            {
              "internalType": "uint256",
              "name": "commentsCount",
              "type": "uint256"
            },
            {
              "internalType": "bytes32",
              "name": "picIpfsHash",
              "type": "bytes32"
            }
          ],
          "internalType": "struct SocialNetwork.Post[]",
          "name": "",
          "type": "tuple[]"
        }
      ],
      "stateMutability": "nonpayable",
      "type": "function"
    },
    {
      "inputs": [],
      "name": "destroyContract",
      "outputs": [],
      "stateMutability": "nonpayable",
      "type": "function"
    }
  ],
  "bytecode": "0x608060405260006008556000600960006101000a81548161ffff021916908361ffff1602179055503480156200003457600080fd5b50336000806101000a81548173ffffffffffffffffffffffffffffffffffffffff021916908373ffffffffffffffffffffffffffffffffffffffff1602179055506040518060400160405280601381526020017f455448202d20536f6369616c4e6574776f726b0000000000000000000000000081525060019080519060200190620000c2929190620000c9565b50620001de565b828054620000d79062000179565b90600052602060002090601f016020900481019282620000fb576000855562000147565b82601f106200011657805160ff191683800117855562000147565b8280016001018555821562000147579182015b828111156200014657825182559160200191906001019062000129565b5b5090506200015691906200015a565b5090565b5b80821115620001755760008160009055506001016200015b565b5090565b600060028204905060018216806200019257607f821691505b60208210811415620001a957620001a8620001af565b5b50919050565b7f4e487b7100000000000000000000000000000000000000000000000000000000600052602260045260246000fd5b6153fd80620001ee6000396000f3fe60806040526004361061012a5760003560e01c8063392cfec7116100ab5780636dc2cc711161006f5780636dc2cc71146103ee5780638751682a1461042b5780638cdb0093146104545780639cb481b214610492578063ad2c48ef146104cf578063d70d88fd146104f85761012a565b8063392cfec71461030657806340a179851461032f5780634a00eb4f146103585780635d10a60d146103955780635d8d1585146103be5761012a565b806317906c2e116100f257806317906c2e146102175780631c6aff1d146102425780631fef580c1461027f5780632fc95d71146102c15780633223e4b8146102dd5761012a565b806307973ccf1461012f578063092a5cce1461015a578063096568b4146101715780630c1d50cb146101ae578063107bf28c146101ec575b600080fd5b34801561013b57600080fd5b50610144610524565b6040516101519190614a7b565b60405180910390f35b34801561016657600080fd5b5061016f610538565b005b34801561017d57600080fd5b5061019860048036038101906101939190613ff5565b610671565b6040516101a591906148b1565b60405180910390f35b3480156101ba57600080fd5b506101d560048036038101906101d09190613ff5565b610bbc565b6040516101e3929190614917565b60405180910390f35b3480156101f857600080fd5b506102016110c3565b60405161020e91906149a0565b60405180910390f35b34801561022357600080fd5b5061022c611151565b6040516102399190614a96565b60405180910390f35b34801561024e57600080fd5b5061026960048036038101906102649190613eb8565b611157565b6040516102769190614985565b60405180910390f35b34801561028b57600080fd5b506102a660048036038101906102a19190613ff5565b61119a565b6040516102b896959493929190614b44565b60405180910390f35b6102db60048036038101906102d69190613ff5565b611287565b005b3480156102e957600080fd5b5061030460048036038101906102ff9190613ff5565b611737565b005b34801561031257600080fd5b5061032d60048036038101906103289190613ff5565b61192a565b005b34801561033b57600080fd5b506103566004803603810190610351919061401e565b611b1d565b005b34801561036457600080fd5b5061037f600480360381019061037a9190613ff5565b612003565b60405161038c9190614a59565b60405180910390f35b3480156103a157600080fd5b506103bc60048036038101906103b79190613f22565b61228a565b005b3480156103ca57600080fd5b506103d36125b5565b6040516103e596959493929190614b44565b60405180910390f35b3480156103fa57600080fd5b5061041560048036038101906104109190613ee1565b6126e6565b60405161042291906148d3565b60405180910390f35b34801561043757600080fd5b50610452600480360381019061044d9190613fa1565b612c8a565b005b34801561046057600080fd5b5061047b60048036038101906104769190613ff5565b612f0d565b60405161048992919061494e565b60405180910390f35b34801561049e57600080fd5b506104b960048036038101906104b49190613e8f565b61322c565b6040516104c69190614a96565b60405180910390f35b3480156104db57600080fd5b506104f660048036038101906104f19190613ee1565b6132ae565b005b34801561050457600080fd5b5061050d6134b7565b60405161051b92919061494e565b60405180910390f35b600960009054906101000a900461ffff1681565b3373ffffffffffffffffffffffffffffffffffffffff1660008054906101000a900473ffffffffffffffffffffffffffffffffffffffff1673ffffffffffffffffffffffffffffffffffffffff16146105c6576040517f08c379a00000000000000000000000000000000000000000000000000000000081526004016105bd90614a39565b60405180910390fd5b7f1ec0eba9b0e9e969285026819e2b9903c774ac2ea3e68a8123cb3528b39489423360008054906101000a900473ffffffffffffffffffffffffffffffffffffffff1660008054906101000a900473ffffffffffffffffffffffffffffffffffffffff1673ffffffffffffffffffffffffffffffffffffffff16316040516106509392919061484a565b60405180910390a13373ffffffffffffffffffffffffffffffffffffffff16ff5b606060008211801561068557506008548211155b61068e57600080fd5b60006002600084815260200190815260200160002060405180610120016040529081600082015481526020016001820180546106c9906151e7565b80601f01602080910402602001604051908101604052809291908181526020018280546106f5906151e7565b80156107425780601f1061071757610100808354040283529160200191610742565b820191906000526020600020905b81548152906001019060200180831161072557829003601f168201915b5050505050815260200160028201805461075b906151e7565b80601f0160208091040260200160405190810160405280929190818152602001828054610787906151e7565b80156107d45780601f106107a9576101008083540402835291602001916107d4565b820191906000526020600020905b8154815290600101906020018083116107b757829003601f168201915b50505050508152602001600382015481526020016004820160009054906101000a900473ffffffffffffffffffffffffffffffffffffffff1673ffffffffffffffffffffffffffffffffffffffff1673ffffffffffffffffffffffffffffffffffffffff16815260200160058201548152602001600682018054610857906151e7565b80601f0160208091040260200160405190810160405280929190818152602001828054610883906151e7565b80156108d05780601f106108a5576101008083540402835291602001916108d0565b820191906000526020600020905b8154815290600101906020018083116108b357829003601f168201915b5050505050815260200160078201548152602001600882015481525050905060008160e00151905060008167ffffffffffffffff81111561093a577f4e487b7100000000000000000000000000000000000000000000000000000000600052604160045260246000fd5b60405190808252806020026020018201604052801561097357816020015b610960613c13565b8152602001906001900390816109585790505b509050600080600190505b838111610baf576005600088815260200190815260200160002060008281526020019081526020016000206040518060c001604052908160008201548152602001600182015481526020016002820180546109d8906151e7565b80601f0160208091040260200160405190810160405280929190818152602001828054610a04906151e7565b8015610a515780601f10610a2657610100808354040283529160200191610a51565b820191906000526020600020905b815481529060010190602001808311610a3457829003601f168201915b505050505081526020016003820160009054906101000a900473ffffffffffffffffffffffffffffffffffffffff1673ffffffffffffffffffffffffffffffffffffffff1673ffffffffffffffffffffffffffffffffffffffff16815260200160048201548152602001600582018054610aca906151e7565b80601f0160208091040260200160405190810160405280929190818152602001828054610af6906151e7565b8015610b435780601f10610b1857610100808354040283529160200191610b43565b820191906000526020600020905b815481529060010190602001808311610b2657829003601f168201915b505050505081525050838380610b5890615244565b945081518110610b91577f4e487b7100000000000000000000000000000000000000000000000000000000600052603260045260246000fd5b60200260200101819052508080610ba790615244565b91505061097e565b5081945050505050919050565b60608060008060006003600087815260200190815260200160002090506000600190505b6008548111610c335781600401600082815260200190815260200160002060009054906101000a900460ff1615610c20578380610c1c90615244565b9450505b8080610c2b90615244565b915050610be0565b5060008367ffffffffffffffff811115610c76577f4e487b7100000000000000000000000000000000000000000000000000000000600052604160045260246000fd5b604051908082528060200260200182016040528015610ca45781602001602082028036833780820191505090505b50905060008467ffffffffffffffff811115610ce9577f4e487b7100000000000000000000000000000000000000000000000000000000600052604160045260246000fd5b604051908082528060200260200182016040528015610d2257816020015b610d0f613c5f565b815260200190600190039081610d075790505b5090506000600190505b60085481116110645783600401600082815260200190815260200160002060009054906101000a900460ff16156110515780838681518110610d97577f4e487b7100000000000000000000000000000000000000000000000000000000600052603260045260246000fd5b602002602001018181525050600260008281526020019081526020016000206040518061012001604052908160008201548152602001600182018054610ddc906151e7565b80601f0160208091040260200160405190810160405280929190818152602001828054610e08906151e7565b8015610e555780601f10610e2a57610100808354040283529160200191610e55565b820191906000526020600020905b815481529060010190602001808311610e3857829003601f168201915b50505050508152602001600282018054610e6e906151e7565b80601f0160208091040260200160405190810160405280929190818152602001828054610e9a906151e7565b8015610ee75780601f10610ebc57610100808354040283529160200191610ee7565b820191906000526020600020905b815481529060010190602001808311610eca57829003601f168201915b50505050508152602001600382015481526020016004820160009054906101000a900473ffffffffffffffffffffffffffffffffffffffff1673ffffffffffffffffffffffffffffffffffffffff1673ffffffffffffffffffffffffffffffffffffffff16815260200160058201548152602001600682018054610f6a906151e7565b80601f0160208091040260200160405190810160405280929190818152602001828054610f96906151e7565b8015610fe35780601f10610fb857610100808354040283529160200191610fe3565b820191906000526020600020905b815481529060010190602001808311610fc657829003601f168201915b505050505081526020016007820154815260200160088201548152505082868061100c90615244565b975081518110611045577f4e487b7100000000000000000000000000000000000000000000000000000000600052603260045260246000fd5b60200260200101819052505b808061105c90615244565b915050610d2c565b503373ffffffffffffffffffffffffffffffffffffffff167fd2365500f72e0836a24bca0665a95120d4f6169769a291786d75fa886cd572e0836040516110ab91906148f5565b60405180910390a28181965096505050505050915091565b600180546110d0906151e7565b80601f01602080910402602001604051908101604052809291908181526020018280546110fc906151e7565b80156111495780601f1061111e57610100808354040283529160200191611149565b820191906000526020600020905b81548152906001019060200180831161112c57829003601f168201915b505050505081565b60085481565b6000602060f81b827effffffffffffffffffffffffffffffffffffffffffffffffffffffffffffff191614156111905760019050611195565b600090505b919050565b60006060600080600080600087116111b157600080fd5b600060036000898152602001908152602001600020905080600001548160020182600601548360070154846008015485600901548480546111f1906151e7565b80601f016020809104026020016040519081016040528092919081815260200182805461121d906151e7565b801561126a5780601f1061123f5761010080835404028352916020019161126a565b820191906000526020600020905b81548152906001019060200180831161124d57829003601f168201915b505050505094509650965096509650965096505091939550919395565b60008111801561129957506008548111155b6112a257600080fd5b60006002600083815260200190815260200160002060405180610120016040529081600082015481526020016001820180546112dd906151e7565b80601f0160208091040260200160405190810160405280929190818152602001828054611309906151e7565b80156113565780601f1061132b57610100808354040283529160200191611356565b820191906000526020600020905b81548152906001019060200180831161133957829003601f168201915b5050505050815260200160028201805461136f906151e7565b80601f016020809104026020016040519081016040528092919081815260200182805461139b906151e7565b80156113e85780601f106113bd576101008083540402835291602001916113e8565b820191906000526020600020905b8154815290600101906020018083116113cb57829003601f168201915b50505050508152602001600382015481526020016004820160009054906101000a900473ffffffffffffffffffffffffffffffffffffffff1673ffffffffffffffffffffffffffffffffffffffff1673ffffffffffffffffffffffffffffffffffffffff1681526020016005820154815260200160068201805461146b906151e7565b80601f0160208091040260200160405190810160405280929190818152602001828054611497906151e7565b80156114e45780601f106114b9576101008083540402835291602001916114e4565b820191906000526020600020905b8154815290600101906020018083116114c757829003601f168201915b505050505081526020016007820154815260200160088201548152505090506000816080015190508073ffffffffffffffffffffffffffffffffffffffff166108fc349081150290604051600060405180830381858888f19350505050158015611552573d6000803e3d6000fd5b503482606001516115639190614e6a565b82606001818152505081600260008581526020019081526020016000206000820151816000015560208201518160010190805190602001906115a6929190613cc4565b5060408201518160020190805190602001906115c3929190613cc4565b506060820151816003015560808201518160040160006101000a81548173ffffffffffffffffffffffffffffffffffffffff021916908373ffffffffffffffffffffffffffffffffffffffff16021790555060a0820151816005015560c082015181600601908051906020019061163b929190613cc4565b5060e0820151816007015561010082015181600801559050503460036000600460003373ffffffffffffffffffffffffffffffffffffffff1673ffffffffffffffffffffffffffffffffffffffff16815260200190815260200160002054815260200190815260200160002060090160008282546116b99190614e6a565b9250508190555034600360008460a00151815260200190815260200160002060080160008282546116ea9190614e6a565b925050819055507f857a474f7d18ba7614a11cc88bce5fd9cf05678441e1cb7c7eac53fecf3a8abd60085483606001518360405161172a93929190614bac565b60405180910390a1505050565b600073ffffffffffffffffffffffffffffffffffffffff163373ffffffffffffffffffffffffffffffffffffffff16141561177157600080fd5b6000600460003373ffffffffffffffffffffffffffffffffffffffff1673ffffffffffffffffffffffffffffffffffffffff168152602001908152602001600020549050818114156117c257600080fd5b600060036000838152602001908152602001600020600701549050600060036000858152602001908152602001600020600601549050600160036000858152602001908152602001600020600501600086815260200190815260200160002060006101000a81548160ff021916908315150217905550600160036000868152602001908152602001600020600301600085815260200190815260200160002060006101000a81548160ff0219169083151502179055506001826118859190614e6a565b60036000858152602001908152602001600020600701819055506001816118ac9190614e6a565b60036000868152602001908152602001600020600601819055503373ffffffffffffffffffffffffffffffffffffffff167f1284e19801ce3def7f6b0025adef283c3cd9ee9bf4a717df2e7af6153517726b848660018661190d9190614e6a565b60405161191c93929190614c8e565b60405180910390a250505050565b600073ffffffffffffffffffffffffffffffffffffffff163373ffffffffffffffffffffffffffffffffffffffff16141561196457600080fd5b6000600460003373ffffffffffffffffffffffffffffffffffffffff1673ffffffffffffffffffffffffffffffffffffffff168152602001908152602001600020549050818114156119b557600080fd5b600060036000838152602001908152602001600020600701549050600060036000858152602001908152602001600020600601549050600060036000858152602001908152602001600020600501600086815260200190815260200160002060006101000a81548160ff021916908315150217905550600182611a38919061508b565b6003600085815260200190815260200160002060070181905550600060036000868152602001908152602001600020600301600085815260200190815260200160002060006101000a81548160ff021916908315150217905550600181611a9f919061508b565b60036000868152602001908152602001600020600601819055503373ffffffffffffffffffffffffffffffffffffffff167f1284e19801ce3def7f6b0025adef283c3cd9ee9bf4a717df2e7af6153517726b8486600186611b00919061508b565b604051611b0f93929190614c44565b60405180910390a250505050565b600082118015611b2f57506008548211155b611b3857600080fd5b6000600260008481526020019081526020016000206040518061012001604052908160008201548152602001600182018054611b73906151e7565b80601f0160208091040260200160405190810160405280929190818152602001828054611b9f906151e7565b8015611bec5780601f10611bc157610100808354040283529160200191611bec565b820191906000526020600020905b815481529060010190602001808311611bcf57829003601f168201915b50505050508152602001600282018054611c05906151e7565b80601f0160208091040260200160405190810160405280929190818152602001828054611c31906151e7565b8015611c7e5780601f10611c5357610100808354040283529160200191611c7e565b820191906000526020600020905b815481529060010190602001808311611c6157829003601f168201915b50505050508152602001600382015481526020016004820160009054906101000a900473ffffffffffffffffffffffffffffffffffffffff1673ffffffffffffffffffffffffffffffffffffffff1673ffffffffffffffffffffffffffffffffffffffff16815260200160058201548152602001600682018054611d01906151e7565b80601f0160208091040260200160405190810160405280929190818152602001828054611d2d906151e7565b8015611d7a5780601f10611d4f57610100808354040283529160200191611d7a565b820191906000526020600020905b815481529060010190602001808311611d5d57829003601f168201915b5050505050815260200160078201548152602001600882015481525050905060008160e0015190508080611dad90615244565b915050600060036000600460003373ffffffffffffffffffffffffffffffffffffffff1673ffffffffffffffffffffffffffffffffffffffff16815260200190815260200160002054815260200190815260200160002090506040518060c001604052808681526020018381526020018581526020013373ffffffffffffffffffffffffffffffffffffffff16815260200182600001548152602001826002018054611e58906151e7565b80601f0160208091040260200160405190810160405280929190818152602001828054611e84906151e7565b8015611ed15780601f10611ea657610100808354040283529160200191611ed1565b820191906000526020600020905b815481529060010190602001808311611eb457829003601f168201915b505050505081525060056000878152602001908152602001600020600084815260200190815260200160002060008201518160000155602082015181600101556040820151816002019080519060200190611f2d929190613cc4565b5060608201518160030160006101000a81548173ffffffffffffffffffffffffffffffffffffffff021916908373ffffffffffffffffffffffffffffffffffffffff1602179055506080820151816004015560a0820151816005019080519060200190611f9b929190613cc4565b509050508160026000878152602001908152602001600020600701819055507f091c43fe8acad66152ac39b09b3cdf1e435cf052695a5020ae486ec31b6537698583863385600201604051611ff4959493929190614be3565b60405180910390a15050505050565b61200b613c5f565b60008211801561201d57506008548211155b61202657600080fd5b60026000838152602001908152602001600020604051806101200160405290816000820154815260200160018201805461205f906151e7565b80601f016020809104026020016040519081016040528092919081815260200182805461208b906151e7565b80156120d85780601f106120ad576101008083540402835291602001916120d8565b820191906000526020600020905b8154815290600101906020018083116120bb57829003601f168201915b505050505081526020016002820180546120f1906151e7565b80601f016020809104026020016040519081016040528092919081815260200182805461211d906151e7565b801561216a5780601f1061213f5761010080835404028352916020019161216a565b820191906000526020600020905b81548152906001019060200180831161214d57829003601f168201915b50505050508152602001600382015481526020016004820160009054906101000a900473ffffffffffffffffffffffffffffffffffffffff1673ffffffffffffffffffffffffffffffffffffffff1673ffffffffffffffffffffffffffffffffffffffff168152602001600582015481526020016006820180546121ed906151e7565b80601f0160208091040260200160405190810160405280929190818152602001828054612219906151e7565b80156122665780601f1061223b57610100808354040283529160200191612266565b820191906000526020600020905b81548152906001019060200180831161224957829003601f168201915b50505050508152602001600782015481526020016008820154815250509050919050565b600083511161229857600080fd5b600860008154809291906122ab90615244565b91905055506000600460003373ffffffffffffffffffffffffffffffffffffffff1673ffffffffffffffffffffffffffffffffffffffff1681526020019081526020016000205490506040518061012001604052806008548152602001858152602001604051806060016040528060338152602001615395603391398152602001600081526020013373ffffffffffffffffffffffffffffffffffffffff168152602001828152602001600360008481526020019081526020016000206002018054612376906151e7565b80601f01602080910402602001604051908101604052809291908181526020018280546123a2906151e7565b80156123ef5780601f106123c4576101008083540402835291602001916123ef565b820191906000526020600020905b8154815290600101906020018083116123d257829003601f168201915b50505050508152602001600081526020018381525060026000600854815260200190815260200160002060008201518160000155602082015181600101908051906020019061243f929190613cc4565b50604082015181600201908051906020019061245c929190613cc4565b506060820151816003015560808201518160040160006101000a81548173ffffffffffffffffffffffffffffffffffffffff021916908373ffffffffffffffffffffffffffffffffffffffff16021790555060a0820151816005015560c08201518160060190805190602001906124d4929190613cc4565b5060e0820151816007015561010082015181600801559050506001600360008381526020019081526020016000206004016000600854815260200190815260200160002060006101000a81548160ff0219169083151502179055503373ffffffffffffffffffffffffffffffffffffffff167f4939c3117187ca7fd8d13368db2b629d4b081a171f4a3e8623497f02433f51a1600854868660003387600360008a81526020019081526020016000206002018a60405161259b989796959493929190614ab1565b60405180910390a26125af84600854612c8a565b50505050565b600060606000806000806000600460003373ffffffffffffffffffffffffffffffffffffffff1673ffffffffffffffffffffffffffffffffffffffff1681526020019081526020016000205490506000811161261057600080fd5b60006003600083815260200190815260200160002090508060000154816002018260060154836007015484600801548560090154848054612650906151e7565b80601f016020809104026020016040519081016040528092919081815260200182805461267c906151e7565b80156126c95780601f1061269e576101008083540402835291602001916126c9565b820191906000526020600020905b8154815290600101906020018083116126ac57829003601f168201915b505050505094509750975097509750975097505050909192939495565b606060006006836040516126fa9190614833565b908152602001604051809103902080548060200260200160405190810160405280929190818152602001828054801561275257602002820191906000526020600020905b81548152602001906001019080831161273e575b50505050509050600080825167ffffffffffffffff81111561279d577f4e487b7100000000000000000000000000000000000000000000000000000000600052604160045260246000fd5b6040519080825280602002602001820160405280156127d657816020015b6127c3613c5f565b8152602001906001900390816127bb5790505b50905060005b8351811015612bb95760076000858381518110612822577f4e487b7100000000000000000000000000000000000000000000000000000000600052603260045260246000fd5b6020026020010151815260200190815260200160002060009054906101000a900460ff16612ba657828061285590615244565b935050600160076000868481518110612897577f4e487b7100000000000000000000000000000000000000000000000000000000600052603260045260246000fd5b6020026020010151815260200190815260200160002060006101000a81548160ff02191690831515021790555060026000858381518110612901577f4e487b7100000000000000000000000000000000000000000000000000000000600052603260045260246000fd5b60200260200101518152602001908152602001600020604051806101200160405290816000820154815260200160018201805461293d906151e7565b80601f0160208091040260200160405190810160405280929190818152602001828054612969906151e7565b80156129b65780601f1061298b576101008083540402835291602001916129b6565b820191906000526020600020905b81548152906001019060200180831161299957829003601f168201915b505050505081526020016002820180546129cf906151e7565b80601f01602080910402602001604051908101604052809291908181526020018280546129fb906151e7565b8015612a485780601f10612a1d57610100808354040283529160200191612a48565b820191906000526020600020905b815481529060010190602001808311612a2b57829003601f168201915b50505050508152602001600382015481526020016004820160009054906101000a900473ffffffffffffffffffffffffffffffffffffffff1673ffffffffffffffffffffffffffffffffffffffff1673ffffffffffffffffffffffffffffffffffffffff16815260200160058201548152602001600682018054612acb906151e7565b80601f0160208091040260200160405190810160405280929190818152602001828054612af7906151e7565b8015612b445780601f10612b1957610100808354040283529160200191612b44565b820191906000526020600020905b815481529060010190602001808311612b2757829003601f168201915b5050505050815260200160078201548152602001600882015481525050828281518110612b9a577f4e487b7100000000000000000000000000000000000000000000000000000000600052603260045260246000fd5b60200260200101819052505b8080612bb190615244565b9150506127dc565b5060005b8351811015612c4557600060076000868481518110612c05577f4e487b7100000000000000000000000000000000000000000000000000000000600052603260045260246000fd5b6020026020010151815260200190815260200160002060006101000a81548160ff0219169083151502179055508080612c3d90615244565b915050612bbd565b507f74c1300619e4280b88be3d51c260624c1631da6c7b55c22bfad9c1759b0088ad8582604051612c779291906149c2565b60405180910390a1809350505050919050565b6000612c95836137f6565b90506000612cd76040518060400160405280600181526020017f20000000000000000000000000000000000000000000000000000000000000008152506137f6565b905060006001612cf0838561382490919063ffffffff16565b612cfa9190614e6a565b67ffffffffffffffff811115612d39577f4e487b7100000000000000000000000000000000000000000000000000000000600052604160045260246000fd5b604051908082528060200260200182016040528015612d6c57816020015b6060815260200190600190039081612d575790505b50905060005b8151811015612ded57612d96612d9184866138cc90919063ffffffff16565b6138e6565b828281518110612dcf577f4e487b7100000000000000000000000000000000000000000000000000000000600052603260045260246000fd5b60200260200101819052508080612de590615244565b915050612d72565b5060005b8151811015612ecc576000828281518110612e35577f4e487b7100000000000000000000000000000000000000000000000000000000600052603260045260246000fd5b602002602001015190506000600682604051612e519190614833565b908152602001604051809103902090508087908060018154018082558091505060019003906000526020600020016000909190919091505580600683604051612e9a9190614833565b9081526020016040518091039020908054612eb6929190613d4a565b5050508080612ec490615244565b915050612df1565b507fff7bdb826be905156c9c48f1c8f3c42d75db8c0de8b9ce184021dde9c4d516f48185604051612efe929190614881565b60405180910390a15050505050565b606080600083118015612f345750600960009054906101000a900461ffff1661ffff168311155b612f3d57600080fd5b60006003600085815260200190815260200160002090506000816007015467ffffffffffffffff811115612f9a577f4e487b7100000000000000000000000000000000000000000000000000000000600052604160045260246000fd5b604051908082528060200260200182016040528015612fc85781602001602082028036833780820191505090505b5090506000826006015467ffffffffffffffff811115613011577f4e487b7100000000000000000000000000000000000000000000000000000000600052604160045260246000fd5b60405190808252806020026020018201604052801561303f5781602001602082028036833780820191505090505b509050600080600190505b600960009054906101000a900461ffff1661ffff1681116130f35784600501600082815260200190815260200160002060009054906101000a900460ff16156130e0578084838061309a90615244565b9450815181106130d3577f4e487b7100000000000000000000000000000000000000000000000000000000600052603260045260246000fd5b6020026020010181815250505b80806130eb90615244565b91505061304a565b50600090506000600190505b600960009054906101000a900461ffff1661ffff1681116131a85784600301600082815260200190815260200160002060009054906101000a900460ff1615613195578083838061314f90615244565b945081518110613188577f4e487b7100000000000000000000000000000000000000000000000000000000600052603260045260246000fd5b6020026020010181815250505b80806131a090615244565b9150506130ff565b508360010160009054906101000a900473ffffffffffffffffffffffffffffffffffffffff1673ffffffffffffffffffffffffffffffffffffffff167f7ebbc67615cdacc372a2a97e3016a3233043ce2d9e92b32fbe3390c0c7286e12848460405161321592919061494e565b60405180910390a282829550955050505050915091565b60008073ffffffffffffffffffffffffffffffffffffffff163373ffffffffffffffffffffffffffffffffffffffff16141561326757600080fd5b600460008373ffffffffffffffffffffffffffffffffffffffff1673ffffffffffffffffffffffffffffffffffffffff168152602001908152602001600020549050919050565b60008151116132bc57600080fd5b6009600081819054906101000a900461ffff16809291906132dc90615219565b91906101000a81548161ffff021916908361ffff16021790555050600060036000600960009054906101000a900461ffff1661ffff16815260200190815260200160002090503373ffffffffffffffffffffffffffffffffffffffff167f86bccb58d5cc5d9545f467598d37d93ecb638f74090cce7c33c9d02ea467172b60405161336690614a19565b60405180910390a2600960009054906101000a900461ffff1661ffff168160000181905550818160020190805190602001906133a3929190613cc4565b50338160010160006101000a81548173ffffffffffffffffffffffffffffffffffffffff021916908373ffffffffffffffffffffffffffffffffffffffff16021790555060008160060181905550600081600701819055506000816008018190555060008160090181905550600960009054906101000a900461ffff1661ffff16600460003373ffffffffffffffffffffffffffffffffffffffff1673ffffffffffffffffffffffffffffffffffffffff168152602001908152602001600020819055503373ffffffffffffffffffffffffffffffffffffffff167f86bccb58d5cc5d9545f467598d37d93ecb638f74090cce7c33c9d02ea467172b6040516134ab906149f9565b60405180910390a25050565b6060806000600460003373ffffffffffffffffffffffffffffffffffffffff1673ffffffffffffffffffffffffffffffffffffffff1681526020019081526020016000205490506000811180156135225750600960009054906101000a900461ffff1661ffff168111155b61352b57600080fd5b60006003600083815260200190815260200160002090506000816007015467ffffffffffffffff811115613588577f4e487b7100000000000000000000000000000000000000000000000000000000600052604160045260246000fd5b6040519080825280602002602001820160405280156135b65781602001602082028036833780820191505090505b5090506000826006015467ffffffffffffffff8111156135ff577f4e487b7100000000000000000000000000000000000000000000000000000000600052604160045260246000fd5b60405190808252806020026020018201604052801561362d5781602001602082028036833780820191505090505b509050600080600190505b600960009054906101000a900461ffff1661ffff1681116136e15784600501600082815260200190815260200160002060009054906101000a900460ff16156136ce578084838061368890615244565b9450815181106136c1577f4e487b7100000000000000000000000000000000000000000000000000000000600052603260045260246000fd5b6020026020010181815250505b80806136d990615244565b915050613638565b50600090506000600190505b600960009054906101000a900461ffff1661ffff1681116137965784600301600082815260200190815260200160002060009054906101000a900460ff1615613783578083838061373d90615244565b945081518110613776577f4e487b7100000000000000000000000000000000000000000000000000000000600052603260045260246000fd5b6020026020010181815250505b808061378e90615244565b9150506136ed565b503373ffffffffffffffffffffffffffffffffffffffff167f7ebbc67615cdacc372a2a97e3016a3233043ce2d9e92b32fbe3390c0c7286e1284846040516137df92919061494e565b60405180910390a282829650965050505050509091565b6137fe613d9c565b600060208301905060405180604001604052808451815260200182815250915050919050565b60008082600001516138488560000151866020015186600001518760200151613988565b6138529190614e6a565b90505b836000015184602001516138699190614e6a565b81116138c557818061387a90615244565b92505082600001516138b4856020015183613895919061508b565b86600001516138a4919061508b565b8386600001518760200151613988565b6138be9190614e6a565b9050613855565b5092915050565b6138d4613d9c565b6138df838383613ac9565b5092915050565b60606000826000015167ffffffffffffffff81111561392e577f4e487b7100000000000000000000000000000000000000000000000000000000600052604160045260246000fd5b6040519080825280601f01601f1916602001820160405280156139605781602001600182028036833780820191505090505b509050600060208201905061397e8185602001518660000151613b94565b8192505050919050565b6000808490506000868511613ab05760208511613a5257600060018660206139b0919061508b565b60086139bc9190615031565b60026139c89190614f13565b6139d2919061508b565b1960001b905060008186511690506000878a8a6139ef9190614e6a565b6139f9919061508b565b905060008386511690505b828114613a4457818610613a2b578a8a613a1e9190614e6a565b9650505050505050613ac1565b8580613a3690615244565b965050838651169050613a04565b859650505050505050613ac1565b60008585209050600091505b8588613a6a919061508b565b8211613aae576000868420905080821415613a8b5783945050505050613ac1565b600184613a989190614e6a565b9350508180613aa690615244565b925050613a5e565b505b8686613abc9190614e6a565b925050505b949350505050565b613ad1613d9c565b6000613aef8560000151866020015186600001518760200151613988565b90508460200151836020018181525050846020015181613b0f919061508b565b83600001818152505084600001518560200151613b2c9190614e6a565b811415613b43576000856000018181525050613b89565b83600001518360000151613b579190614e6a565b85600001818151613b68919061508b565b91508181525050836000015181613b7f9190614e6a565b8560200181815250505b829150509392505050565b5b60208110613bd35781518352602083613bae9190614e6a565b9250602082613bbd9190614e6a565b9150602081613bcc919061508b565b9050613b95565b60006001826020613be4919061508b565b610100613bf19190614f13565b613bfb919061508b565b90508019835116818551168181178652505050505050565b6040518060c00160405280600081526020016000815260200160608152602001600073ffffffffffffffffffffffffffffffffffffffff16815260200160008152602001606081525090565b60405180610120016040528060008152602001606081526020016060815260200160008152602001600073ffffffffffffffffffffffffffffffffffffffff168152602001600081526020016060815260200160008152602001600080191681525090565b828054613cd0906151e7565b90600052602060002090601f016020900481019282613cf25760008555613d39565b82601f10613d0b57805160ff1916838001178555613d39565b82800160010185558215613d39579182015b82811115613d38578251825591602001919060010190613d1d565b5b509050613d469190613db6565b5090565b828054828255906000526020600020908101928215613d8b5760005260206000209182015b82811115613d8a578254825591600101919060010190613d6f565b5b509050613d989190613db6565b5090565b604051806040016040528060008152602001600081525090565b5b80821115613dcf576000816000905550600101613db7565b5090565b6000613de6613de184614d09565b614cd8565b905082815260208101848484011115613dfe57600080fd5b613e098482856151a5565b509392505050565b600081359050613e2081615338565b92915050565b600081359050613e358161534f565b92915050565b600081359050613e4a81615366565b92915050565b600082601f830112613e6157600080fd5b8135613e71848260208601613dd3565b91505092915050565b600081359050613e898161537d565b92915050565b600060208284031215613ea157600080fd5b6000613eaf84828501613e11565b91505092915050565b600060208284031215613eca57600080fd5b6000613ed884828501613e26565b91505092915050565b600060208284031215613ef357600080fd5b600082013567ffffffffffffffff811115613f0d57600080fd5b613f1984828501613e50565b91505092915050565b600080600060608486031215613f3757600080fd5b600084013567ffffffffffffffff811115613f5157600080fd5b613f5d86828701613e50565b935050602084013567ffffffffffffffff811115613f7a57600080fd5b613f8686828701613e50565b9250506040613f9786828701613e3b565b9150509250925092565b60008060408385031215613fb457600080fd5b600083013567ffffffffffffffff811115613fce57600080fd5b613fda85828601613e50565b9250506020613feb85828601613e7a565b9150509250929050565b60006020828403121561400757600080fd5b600061401584828501613e7a565b91505092915050565b6000806040838503121561403157600080fd5b600061403f85828601613e7a565b925050602083013567ffffffffffffffff81111561405c57600080fd5b61406885828601613e50565b9150509250929050565b600061407e83836142fb565b905092915050565b600061409283836145d0565b905092915050565b60006140a68383614660565b905092915050565b60006140ba8383614815565b60208301905092915050565b6140cf8161515d565b82525050565b6140de816150d1565b82525050565b6140ed816150bf565b82525050565b6140fc816150bf565b82525050565b600061410d82614d8e565b6141178185614df9565b93508360208202850161412985614d39565b8060005b8581101561416557848403895281516141468582614072565b945061415183614dc5565b925060208a0199505060018101905061412d565b50829750879550505050505092915050565b600061418282614d99565b61418c8185614e0a565b93508360208202850161419e85614d49565b8060005b858110156141da57848403895281516141bb8582614086565b94506141c683614dd2565b925060208a019950506001810190506141a2565b50829750879550505050505092915050565b60006141f782614da4565b6142018185614e1b565b93508360208202850161421385614d59565b8060005b8581101561424f5784840389528151614230858261409a565b945061423b83614ddf565b925060208a01995050600181019050614217565b50829750879550505050505092915050565b600061426c82614daf565b6142768185614e2c565b935061428183614d69565b8060005b838110156142b257815161429988826140ae565b97506142a483614dec565b925050600181019050614285565b5085935050505092915050565b6142c8816150e3565b82525050565b6142d78161511b565b82525050565b6142e68161511b565b82525050565b6142f58161516f565b82525050565b600061430682614dba565b6143108185614e3d565b93506143208185602086016151b4565b6143298161531a565b840191505092915050565b600061433f82614dba565b6143498185614e4e565b93506143598185602086016151b4565b6143628161531a565b840191505092915050565b600061437882614dba565b6143828185614e5f565b93506143928185602086016151b4565b80840191505092915050565b600081546143ab816151e7565b6143b58186614e4e565b945060018216600081146143d057600181146143e257614415565b60ff1983168652602086019350614415565b6143eb85614d79565b60005b8381101561440d578154818901526001820191506020810190506143ee565b808801955050505b50505092915050565b600061442b602583614e4e565b91507f556e466f6c6c6f77696e672074686520617574686f722077697468206e65772060008301527f636f756e740000000000000000000000000000000000000000000000000000006020830152604082019050919050565b6000614491600c83614e4e565b91507f55736572204372656174656400000000000000000000000000000000000000006000830152602082019050919050565b60006144d1602383614e4e565b91507f466f6c6c6f77696e672074686520617574686f722077697468206e657720636f60008301527f756e7400000000000000000000000000000000000000000000000000000000006020830152604082019050919050565b6000614537600d83614e4e565b91507f4372656174696e672055736572000000000000000000000000000000000000006000830152602082019050919050565b6000614577603083614e4e565b91507f4f6e6c792074686520636f6e7472616374206f776e65722063616e206465737460008301527f726f792074686520636f6e7472616374000000000000000000000000000000006020830152604082019050919050565b600060c0830160008301516145e86000860182614815565b5060208301516145fb6020860182614815565b506040830151848203604086015261461382826142fb565b915050606083015161462860608601826140e4565b50608083015161463b6080860182614815565b5060a083015184820360a086015261465382826142fb565b9150508091505092915050565b6000610120830160008301516146796000860182614815565b506020830151848203602086015261469182826142fb565b915050604083015184820360408601526146ab82826142fb565b91505060608301516146c06060860182614815565b5060808301516146d360808601826140d5565b5060a08301516146e660a0860182614815565b5060c083015184820360c08601526146fe82826142fb565b91505060e083015161471360e0860182614815565b506101008301516147286101008601826142ce565b508091505092915050565b60006101208301600083015161474c6000860182614815565b506020830151848203602086015261476482826142fb565b9150506040830151848203604086015261477e82826142fb565b91505060608301516147936060860182614815565b5060808301516147a660808601826140d5565b5060a08301516147b960a0860182614815565b5060c083015184820360c08601526147d182826142fb565b91505060e08301516147e660e0860182614815565b506101008301516147fb6101008601826142ce565b508091505092915050565b61480f81615125565b82525050565b61481e81615153565b82525050565b61482d81615153565b82525050565b600061483f828461436d565b915081905092915050565b600060608201905061485f60008301866140f3565b61486c60208301856140f3565b6148796040830184614824565b949350505050565b6000604082019050818103600083015261489b8185614102565b90506148aa6020830184614824565b9392505050565b600060208201905081810360008301526148cb8184614177565b905092915050565b600060208201905081810360008301526148ed81846141ec565b905092915050565b6000602082019050818103600083015261490f8184614261565b905092915050565b600060408201905081810360008301526149318185614261565b9050818103602083015261494581846141ec565b90509392505050565b600060408201905081810360008301526149688185614261565b9050818103602083015261497c8184614261565b90509392505050565b600060208201905061499a60008301846142bf565b92915050565b600060208201905081810360008301526149ba8184614334565b905092915050565b600060408201905081810360008301526149dc8185614334565b905081810360208301526149f081846141ec565b90509392505050565b60006020820190508181036000830152614a1281614484565b9050919050565b60006020820190508181036000830152614a328161452a565b9050919050565b60006020820190508181036000830152614a528161456a565b9050919050565b60006020820190508181036000830152614a738184614733565b905092915050565b6000602082019050614a906000830184614806565b92915050565b6000602082019050614aab6000830184614824565b92915050565b600061010082019050614ac7600083018b614824565b8181036020830152614ad9818a614334565b90508181036040830152614aed8189614334565b9050614afc60608301886142ec565b614b0960808301876140f3565b614b1660a0830186614824565b81810360c0830152614b28818561439e565b9050614b3760e08301846142dd565b9998505050505050505050565b600060c082019050614b596000830189614824565b8181036020830152614b6b8188614334565b9050614b7a6040830187614824565b614b876060830186614824565b614b946080830185614824565b614ba160a0830184614824565b979650505050505050565b6000606082019050614bc16000830186614824565b614bce6020830185614824565b614bdb60408301846140c6565b949350505050565b600060a082019050614bf86000830188614824565b614c056020830187614824565b8181036040830152614c178186614334565b9050614c2660608301856140f3565b8181036080830152614c38818461439e565b90509695505050505050565b6000608082019050614c596000830186614824565b614c666020830185614824565b8181036040830152614c778161441e565b9050614c866060830184614824565b949350505050565b6000608082019050614ca36000830186614824565b614cb06020830185614824565b8181036040830152614cc1816144c4565b9050614cd06060830184614824565b949350505050565b6000604051905081810181811067ffffffffffffffff82111715614cff57614cfe6152eb565b5b8060405250919050565b600067ffffffffffffffff821115614d2457614d236152eb565b5b601f19601f8301169050602081019050919050565b6000819050602082019050919050565b6000819050602082019050919050565b6000819050602082019050919050565b6000819050602082019050919050565b60008190508160005260206000209050919050565b600081519050919050565b600081519050919050565b600081519050919050565b600081519050919050565b600081519050919050565b6000602082019050919050565b6000602082019050919050565b6000602082019050919050565b6000602082019050919050565b600082825260208201905092915050565b600082825260208201905092915050565b600082825260208201905092915050565b600082825260208201905092915050565b600082825260208201905092915050565b600082825260208201905092915050565b600081905092915050565b6000614e7582615153565b9150614e8083615153565b9250827fffffffffffffffffffffffffffffffffffffffffffffffffffffffffffffffff03821115614eb557614eb461528d565b5b828201905092915050565b6000808291508390505b6001851115614f0a57808604811115614ee657614ee561528d565b5b6001851615614ef55780820291505b8081029050614f038561532b565b9450614eca565b94509492505050565b6000614f1e82615153565b9150614f2983615153565b9250614f567fffffffffffffffffffffffffffffffffffffffffffffffffffffffffffffffff8484614f5e565b905092915050565b600082614f6e576001905061502a565b81614f7c576000905061502a565b8160018114614f925760028114614f9c57614fcb565b600191505061502a565b60ff841115614fae57614fad61528d565b5b8360020a915084821115614fc557614fc461528d565b5b5061502a565b5060208310610133831016604e8410600b84101617156150005782820a905083811115614ffb57614ffa61528d565b5b61502a565b61500d8484846001614ec0565b925090508184048111156150245761502361528d565b5b81810290505b9392505050565b600061503c82615153565b915061504783615153565b9250817fffffffffffffffffffffffffffffffffffffffffffffffffffffffffffffffff04831182151516156150805761507f61528d565b5b828202905092915050565b600061509682615153565b91506150a183615153565b9250828210156150b4576150b361528d565b5b828203905092915050565b60006150ca82615133565b9050919050565b60006150dc82615133565b9050919050565b60008115159050919050565b60007fff0000000000000000000000000000000000000000000000000000000000000082169050919050565b6000819050919050565b600061ffff82169050919050565b600073ffffffffffffffffffffffffffffffffffffffff82169050919050565b6000819050919050565b600061516882615181565b9050919050565b600061517a82615153565b9050919050565b600061518c82615193565b9050919050565b600061519e82615133565b9050919050565b82818337600083830152505050565b60005b838110156151d25780820151818401526020810190506151b7565b838111156151e1576000848401525b50505050565b600060028204905060018216806151ff57607f821691505b60208210811415615213576152126152bc565b5b50919050565b600061522482615125565b915061ffff8214156152395761523861528d565b5b600182019050919050565b600061524f82615153565b91507fffffffffffffffffffffffffffffffffffffffffffffffffffffffffffffffff8214156152825761528161528d565b5b600182019050919050565b7f4e487b7100000000000000000000000000000000000000000000000000000000600052601160045260246000fd5b7f4e487b7100000000000000000000000000000000000000000000000000000000600052602260045260246000fd5b7f4e487b7100000000000000000000000000000000000000000000000000000000600052604160045260246000fd5b6000601f19601f8301169050919050565b60008160011c9050919050565b615341816150bf565b811461534c57600080fd5b50565b615358816150ef565b811461536357600080fd5b50565b61536f8161511b565b811461537a57600080fd5b50565b61538681615153565b811461539157600080fd5b5056fe68747470733a2f2f6769746875622e636f6d2f5072617665656e50696e2f53696d706c652d536f6369616c2d4e6574776f726ba26469706673582212207e435294997604c2ec8dfa498a161e0c0c2170f318873d869cd3a4828a4e50f964736f6c63430008000033",
  "immutableReferences": {},
  "source": "pragma solidity ^0.8.0;\r\n\r\nimport './owned.sol';\r\nimport \"./StringsLib.sol\";\r\npragma abicoder v2;\r\n\r\ncontract SocialNetwork is owned{\r\n    /*Add code */\r\n    using strings for *;\r\n\r\n    string public networkName; /* State variable -> this value gets stored on block chain*/\r\n    // we cannot know the length of any map and cannot iterate over it, we can only fetch individually\r\n    mapping(uint => Post) posts;/* Key Value Store, gets written to block chain itself */\r\n    mapping(uint => User) users;\r\n    mapping(address => uint) addressToUid;\r\n    mapping(uint => mapping(uint => Comment)) comments;\r\n    mapping(string => uint[]) postsFromTags;\r\n    mapping(uint256 => bool) helperMap;\r\n\r\n    uint public postCount = 0;\r\n    uint16 public userCount = 0;\r\n\r\n    struct User{\r\n        uint id;\r\n        address userAddress;\r\n        string name;        \r\n        mapping(uint => bool) followerIds;\r\n        mapping(uint => bool) myPostIds; //not user's id\r\n        mapping(uint => bool) followingIds;\r\n        uint followersCount;\r\n        uint followingCount;\r\n        uint tipObtained;\r\n        uint tipDonated;\r\n    } \r\n\r\n    struct Post{\r\n        uint pid;\r\n        string content;\r\n        string url;\r\n        uint tipAmount;\r\n        address payable author;\r\n        uint authorId;\r\n        string authorName;\r\n        uint commentsCount;\r\n        bytes32 picIpfsHash;\r\n    }\r\n\r\n    struct Comment{\r\n        uint postId;\r\n        uint cid;\r\n        string comment;\r\n        address author;\r\n        uint authorId;\r\n        string authorName;\r\n    }\r\n\r\n    constructor () public {\r\n        networkName = \"ETH - SocialNetwork\";\r\n    }\r\n\r\n    //events for creating user, following a user, unfollowing a user\r\n    event AutoCreateUser(address indexed sender, string message);\r\n    event FollowOrUnFollowUser(address indexed sender, uint senderId, uint author, string message, uint count);\r\n\r\n    function getUserIdFromAddress(address _userAddress) public checkAddress view returns (uint){\r\n        return addressToUid[_userAddress];\r\n    }\r\n\r\n    function getPostFromPostId(uint _postId) public view returns (Post memory){\r\n        require(_postId > 0 && _postId <= postCount);\r\n        return posts[_postId];\r\n    }\r\n\r\n    function autoCreateUser(string memory _uname) public {        \r\n        require(bytes(_uname).length > 0);\r\n        userCount++;\r\n        User storage _user = users[userCount];\r\n        emit AutoCreateUser(msg.sender, \"Creating User\");            \r\n        _user.id = userCount;\r\n        _user.name = _uname;\r\n        _user.userAddress = msg.sender;\r\n        _user.followersCount = 0;\r\n        _user.followingCount = 0;\r\n        _user.tipObtained = 0;\r\n        _user.tipDonated = 0;\r\n        addressToUid[msg.sender] = userCount;\r\n        emit AutoCreateUser(msg.sender, \"User Created\");\r\n    }\r\n\r\n    function getUserInfo() public view returns (uint, string memory, uint, uint, uint, uint){     \r\n        uint _userId = addressToUid[msg.sender];\r\n        require(_userId > 0);   \r\n        User storage _user = users[_userId];\r\n        return (_user.id, _user.name, _user.followersCount, _user.followingCount, _user.tipObtained, _user.tipDonated);\r\n    }\r\n\r\n    function followAuthor(uint _authorId) public checkAddress{\r\n        uint senderId = addressToUid[msg.sender];\r\n        require(senderId != _authorId);\r\n        uint followingCount = users[senderId].followingCount;\r\n        uint authorsFollowersCount = users[_authorId].followersCount;\r\n        users[senderId].followingIds[_authorId] = true;\r\n        users[_authorId].followerIds[senderId] = true;\r\n        users[senderId].followingCount = followingCount+1;\r\n        users[_authorId].followersCount = authorsFollowersCount+1;\r\n        emit FollowOrUnFollowUser(msg.sender, senderId, _authorId, \"Following the author with new count\", followingCount+1);\r\n    }\r\n\r\n    function unFollowAuthor(uint _authorId) public checkAddress{\r\n        uint senderId = addressToUid[msg.sender];\r\n        require(senderId != _authorId);\r\n        uint followingCount = users[senderId].followingCount;\r\n        uint authorsFollowersCount = users[_authorId].followersCount;\r\n        users[senderId].followingIds[_authorId] = false;\r\n        users[senderId].followingCount = followingCount-1;\r\n        users[_authorId].followerIds[senderId] = false;\r\n        users[_authorId].followersCount = authorsFollowersCount-1;\r\n        emit FollowOrUnFollowUser(msg.sender, senderId, _authorId, \"UnFollowing the author with new count\", followingCount -1);\r\n    }\r\n\r\n    event FetchMyPosts(address indexed addr, uint[] myPostIds);\r\n\r\n    event FetchMyNetworkIds(address indexed sender, uint[] followingIds, uint[] followerIds);\r\n\r\n    function getMyPosts(uint _id) public returns (uint[] memory, Post[] memory){        \r\n        uint myPostCount = 0;\r\n        uint counter = 0;\r\n\r\n        User storage _user = users[_id];\r\n        for (uint i = 1; i <= postCount; i++){\r\n            if(_user.myPostIds[i]){\r\n                myPostCount++;\r\n            }\r\n        }\r\n        \r\n        uint[] memory postIds = new uint[](myPostCount);\r\n        Post[] memory myPosts = new Post[](myPostCount);\r\n        \r\n        for (uint i = 1; i <= postCount; i++){\r\n            if(_user.myPostIds[i]){\r\n                postIds[counter] = i;\r\n                myPosts[counter++] = posts[i];\r\n            }\r\n        }\r\n        emit FetchMyPosts(msg.sender,postIds);\r\n        return (postIds, myPosts);\r\n    }\r\n\r\n    function getAllFollowingIds() public returns (uint[] memory, uint[] memory){\r\n        uint myId = addressToUid[msg.sender];\r\n        require(myId > 0 && myId <= userCount);\r\n        User storage _user = users[myId];\r\n        uint[] memory followingIds = new uint[](_user.followingCount);\r\n        uint[] memory followerIds = new uint[](_user.followersCount);\r\n        uint counter = 0;\r\n        for (uint i = 1; i <= userCount; i++){\r\n            if(_user.followingIds[i]){\r\n                followingIds[counter++] = i;\r\n            }\r\n        }\r\n        counter = 0;\r\n        for (uint i = 1; i <= userCount; i++){\r\n            if(_user.followerIds[i]){\r\n                followerIds[counter++] = i;\r\n            }\r\n        }\r\n        emit FetchMyNetworkIds(msg.sender,followingIds,followerIds);\r\n        return (followingIds,followerIds);\r\n    }\r\n    \r\n    function getWholeNetworkForAnId(uint myId) public returns (uint[] memory, uint[] memory){\r\n        require(myId > 0 && myId <= userCount);\r\n        User storage _user = users[myId];\r\n        uint[] memory followingIds = new uint[](_user.followingCount);\r\n        uint[] memory followerIds = new uint[](_user.followersCount);\r\n        uint counter = 0;\r\n        for (uint i = 1; i <= userCount; i++){\r\n            if(_user.followingIds[i]){\r\n                followingIds[counter++] = i;\r\n            }\r\n        }\r\n        counter = 0;\r\n        for (uint i = 1; i <= userCount; i++){\r\n            if(_user.followerIds[i]){\r\n                followerIds[counter++] = i;\r\n            }\r\n        }\r\n        emit FetchMyNetworkIds(_user.userAddress,followingIds,followerIds);\r\n        return (followingIds,followerIds);\r\n    }\r\n\r\n    function getUserData(uint _uid) public view returns (uint, string memory, uint, uint, uint, uint){     \r\n        require(_uid > 0);   \r\n        User storage _user = users[_uid];\r\n        return (_user.id, _user.name, _user.followersCount, _user.followingCount, _user.tipObtained, _user.tipDonated);\r\n    }\r\n\r\n    event PostCreated(address indexed id, uint pid, string content, string url, uint tipAmount, address author, uint authorId, string authorName, bytes32 imageHash);\r\n\r\n    function createPost(string memory _content, string memory _url, bytes32 _imageHash ) public{ \r\n        //require valid content\r\n        require(bytes(_content).length > 0); //if false it stops execution and gas used will be refunded back to caller, else continues execution\r\n        \r\n        /* Here _content is a local var and underscore is just a conventions for local vars*/\r\n        postCount++;        \r\n        uint userId = addressToUid[msg.sender];\r\n        posts[postCount] = Post(postCount, _content, \"https://github.com/PraveenPin/Simple-Social-Network\", 0, payable(msg.sender), userId, users[userId].name, 0, _imageHash); /* Instantiates Post, adds it into map */        \r\n        //adding the post id to the user\r\n        users[userId].myPostIds[postCount] = true;\r\n        //Trigger event from solidity smart contracts\r\n        //these posts can be open for subscription by consumers\r\n        emit PostCreated(msg.sender,postCount, _content, _url, 0, msg.sender, userId, users[userId].name, _imageHash);        \r\n        createTag(_content, postCount);\r\n    }\r\n\r\n    event PostTipped(uint pid, uint tipAmount, address author);\r\n\r\n    function tipAPost(uint _id) public payable {\r\n        require(_id > 0 && _id <= postCount);\r\n        Post memory _post = posts[_id];\r\n        address payable _author = _post.author;\r\n        //paying the author by sending ether\r\n        payable(address(_author)).transfer(msg.value);\r\n        //here the tip should be ether, so we use function meta data\r\n        _post.tipAmount = _post.tipAmount + msg.value;\r\n        posts[_id] = _post;\r\n        \r\n        //add tip amount to user donation\r\n        users[addressToUid[msg.sender]].tipDonated += msg.value;\r\n        //add tip amount to author's obtained tip\r\n        users[_post.authorId].tipObtained += msg.value;\r\n        emit PostTipped(postCount, _post.tipAmount, _author);\r\n    }\r\n\r\n    //functions, events to create and delete comments\r\n    event CommentDeleted(uint pid, uint cid, string deletedComment, address commentAuthor, string authorName);\r\n    event CommentCreated(uint pid, uint cid, string comment, address commentedUser, string authorName);\r\n\r\n    function createComment(uint _pid, string memory _comment) public {\r\n        require(_pid > 0 && _pid <= postCount);\r\n        Post memory _post = posts[_pid];\r\n        uint commentsCount = _post.commentsCount;\r\n        commentsCount++;\r\n        User storage _user = users[addressToUid[msg.sender]];\r\n        comments[_pid][commentsCount] = Comment(_pid, commentsCount, _comment, msg.sender, _user.id, _user.name);\r\n        posts[_pid].commentsCount = commentsCount;\r\n        emit CommentCreated(_pid, commentsCount, _comment, msg.sender, _user.name);\r\n    }\r\n\r\n    function fetchAllComments(uint _postId) public view returns (Comment[] memory){\r\n        require(_postId > 0 && _postId <= postCount);\r\n        Post memory _post = posts[_postId];\r\n        uint commentsCount = _post.commentsCount;\r\n        Comment[] memory postComments = new Comment[](commentsCount);\r\n        uint counter = 0;\r\n        for(uint i=1; i<= commentsCount; i++){\r\n            postComments[counter++] = comments[_postId][i];\r\n        }\r\n        return postComments;\r\n    }\r\n\r\n    //event for tag creation\r\n    event PostTagsCreated(string[] tags, uint postId);\r\n    event AllPostsOfATag(string tag, Post[] posts);\r\n    event emitWord(string tag);\r\n\r\n    function createTag(string memory _content, uint _postId) public {       \r\n        \r\n        strings.slice memory s  = _content.toSlice();\r\n        strings.slice memory delim = \" \".toSlice();\r\n        string[] memory parts = new string[](s.count(delim) + 1);\r\n        for(uint i = 0; i < parts.length; i++) {\r\n            parts[i] = s.split(delim).toString();\r\n        }\r\n\r\n        for(uint i = 0; i<parts.length;i++){\r\n            string memory tag = parts[i];\r\n            uint[] storage postIds = postsFromTags[tag];\r\n            postIds.push(_postId);\r\n            postsFromTags[tag] = postIds;\r\n            // bool found = false;\r\n            // for(uint j=0; j<postIds.length; i++){\r\n            //     if(!found && postIds[j] == _postId){\r\n            //         found = true;\r\n            //         break;\r\n            //     }\r\n            // }\r\n            // if(!found){\r\n            // }\r\n        }\r\n\r\n\r\n        emit PostTagsCreated(parts, _postId);\r\n    }\r\n\r\n    function checkEmptyCharacter(bytes1 _char) public pure returns (bool){\r\n        if(_char == 0x20){\r\n            return true;\r\n        }\r\n        return false;\r\n    }\r\n\r\n    function getPostsFromTag(string memory tag) public returns (Post[] memory){\r\n        uint[] memory postIds = postsFromTags[tag];\r\n        uint counter = 0;\r\n        Post[] memory postsOfTag = new Post[](postIds.length);\r\n        for(uint i=0;i< postIds.length;i++){\r\n            if(!helperMap[postIds[i]]){\r\n                counter++;\r\n                helperMap[postIds[i]] = true;\r\n                postsOfTag[i] = posts[postIds[i]];\r\n            }\r\n        }\r\n\r\n        //nullify helper map\r\n        for(uint i=0;i< postIds.length;i++){\r\n            helperMap[postIds[i]] = false;\r\n        }\r\n        emit AllPostsOfATag(tag, postsOfTag);\r\n        return postsOfTag;\r\n    }\r\n\r\n    //self destruct event \r\n    event DestroyContract(address sender, address caller, uint balance);\r\n\r\n    function destroyContract() public onlyOwner{\r\n        emit DestroyContract(msg.sender, owner, owner.balance);\r\n        selfdestruct(payable(msg.sender));\r\n    }\r\n\r\n}",
  "sourcePath": "C:/Users/praveen/Desktop/Eth-Project/sample/rn-eth/contracts/SocialNetwork.sol",
  "compiler": {
    "name": "solc",
    "version": "0.8.0+commit.c7dfd78e.Emscripten.clang"
  },
  "schemaVersion": "3.4.1",
  "updatedAt": "2021-07-17T06:31:38.863Z",
  "networkType": "ethereum",
  "devdoc": {
    "kind": "dev",
    "methods": {},
    "version": 1
  },
  "userdoc": {
    "kind": "user",
    "methods": {},
    "version": 1
  }
}